:1000000012C01FC01EC01DC04EC01BC01AC019C0E8
:1000100018C017C016C015C014C020C012C011C02F
:1000200010C00FC00EC011241FBECFEDCDBF20E009
:10003000A0E6B0E001C01D92A138B207E1F7A2D15D
:10004000F7C1DECF2FB7F89460916D0070916E000C
:1000500080916F00909170002FBF08951F920F92B2
:100060000FB60F9211248F939F93AF93BF938091FC
:100070006D0090916E00A0916F00B091700001969C
:10008000A11DB11D80936D0090936E00A0936F0031
:10009000B0937000BF91AF919F918F910F900FBE61
:1000A0000F901F9018951F920F920FB60F92112468
:1000B0000F900FBE0F901F901895FC0180819181C9
:1000C000892BA9F4939886990EC0929A939A8DE001
:1000D0008A95F1F7000093988FE19EE40197F1F77C
:1000E00000C0000092981182108282E0089511826F
:1000F000108283E008950F931F93CF93DF93EC0159
:1001000088819981009721F08D3C910529F05DC08F
:100110008DEC90E09983888395DF009169001091C0
:100120006A0020916B0030916C00DC01CB01801BD8
:10013000910BA20BB30B80359105A105B10508F415
:1001400048C080DF6093690070936A0080936B0001
:1001500090936C00859921C080917A0081110CC028
:1001600081E080937A0082E19AE790937E00809309
:100170007D0080E091E00AC0813069F480E197E27F
:1001800090937E0080937D0088E090E090938000C3
:1001900080937F0002C010927A00869916C08091E9
:1001A0007B0090917C008A30910519F489E09DE3F1
:1001B00008C089309D4319F48DED9DE602C08AE0A8
:1001C00090E090937C0080937B001982188283E0FA
:1001D00001C080E0DF91CF911F910F9108950F939F
:1001E0001F93CF93DF93EC01888199818C3F910518
:1001F00059F0813021E0920769F1892B09F059C04B
:100200008CEF90E0998388831DDF00916500109149
:1002100066002091670030916800DC01CB01801BF3
:10022000910BA20BB30B0A97A105B10510F480E066
:1002300043C080917A00811114C01092790089B76F
:100240008F7B89BF109272001092710081E091E063
:100250009983888381E790E030DF823040F3929881
:10026000949880917A008130D9F480917D009091AA
:100270007E00803127E2920761F082312AE79207FF
:1002800029F080349F4139F4929A04C0929A94984C
:1002900002C09298949A1092790089B78F7B89BF97
:1002A000D1DE609365007093660080936700909341
:1002B00068001982188283E0DF91CF911F910F911E
:1002C00008950F931F93CF93DF93EC018881998159
:1002D000009721F08232914029F04AC082E291E0F9
:1002E00099838883AFDE00916100109162002091B4
:1002F000630030916400DC01CB01801B910BA20BE9
:10030000B30B84369105A105B105B0F180917A0057
:10031000813029F580917D0090917E00803127E227
:100320009207C9F082312AE7920721F080349F4179
:10033000F9F41CC0829908C0809160008B3020F0D5
:1003400092981092600010C0929A809160008F5F26
:100350008093600009C0829B06C0929A05C08230DB
:1003600039F4829903C09298949802C0929A949A10
:100370001982188283E001C080E0DF91CF911F9144
:100380000F9108951092790010927A008AE090E01F
:1003900090937C0080937B0022E13AE730937E00CB
:1003A00020937D0040E051E05093800040937F0017
:1003B0004EE141BB4FEF47BB40E642BB18BA42E0BB
:1003C00040BF43E043BF12BE4DE746BF42E44FBDCE
:1003D0004CE14EBD1DBC1CBC35BD24BD9BBD8ABDC2
:1003E00089B7816489BF10927800109277001092CB
:1003F00076001092750010927400109273001092A3
:10040000720010927100A8959FE088E10FB6F894F1
:10041000A89581BD0FBE91BD789487E790E06BDE13
:1004200085E790E0DCDE83E790E04BDFA895F5CF31
:04043000F894FFCF6E
:00000001FF
