:1000000012C01FC01EC01DC042C01BC01AC019C0F4
:1000100018C017C016C015C014C014C012C011C03B
:1000200010C00FC00EC011241FBECFEDCDBF20E009
:10003000A0E6B0E001C01D92AD37B207E1F739D0BC
:10004000D8C2DECF1F920F920FB60F9211248F935A
:100050009F93AF93BF9380916F0090917000A09198
:100060007100B09172000196A11DB11D80936F00C7
:1000700090937000A0937100B0937200BF91AF9104
:100080009F918F910F900FBE0F901F9018951F9208
:100090000F920FB60F9211248F93809179008230C6
:1000A00011F4109279008F910F900FBE0F901F9056
:1000B0001895CF93DF9300D0CDB7DD2781E090E096
:1000C0009A8389831092790010927A0010927B00B3
:1000D00010927C008EE181BB8FEF87BB80E682BBF4
:1000E00018BA82E080BF83E083BF12BE8DE786BF6F
:1000F00082E88FBD8CE18EBD8FB58F778FBD1DBC23
:100100001CBC15BC14BC1BBC1ABC89B7816089BF60
:10011000109278001092770010927600109275007D
:100120001092740010927300A8959FE088E10FB6BA
:10013000F894A89581BD0FBE91BD789424E1F22E6C
:1001400032E0E32EF1E06AEF70E040E6C42E4AEEC2
:10015000D42E04EC19E0A2E1BAE750E4252E5FE1C9
:10016000352E4FE351E025E931E026C08A3F910565
:1001700069F110927800109277008091750090914B
:100180007600009709F45EC08F33914009F45EC099
:100190001092760010927500809173009091740017
:1001A000009709F499C08539914009F499C01092DB
:1001B000740010927300A895809177009091780058
:1001C0000097A1F670937800609377008FB7F8944A
:1001D00080906F0090907000A0907100B0907200BD
:1001E0008FBF40906B0050906C0060906D007090DD
:1001F0006E0084189508A608B7088AE0881691044E
:10020000A104B10408F4B9CF8FB7F89480906F00BF
:1002100090907000A0907100B09072008FBF80929B
:100220006B0090926C00A0926D00B0926E00809175
:100230006A00882309F494C080916A0081508093F9
:100240006A0097CF50937600409375008FB7F8946B
:1002500080906F0090907000A0907100B09072003C
:100260008FBF40906600509067006090680070906B
:10027000690084189508A608B7088AE088169104D2
:10028000A104B10408F488CF8FB7F89480906F0070
:1002900090907000A0907100B09072008FBF80921B
:1002A000660090926700A0926800B0926900809109
:1002B000790081117CC080917A00813009F4A3C05B
:1002C000811166CF89B78F7B89BF8FB58F778FBD3F
:1002D000C398939894985CCF3093740020937300E4
:1002E0008FB7F89480906F0090907000A09071008C
:1002F000B09072008FBF4090620050906300609099
:1003000064007090650084189508A608B70884E614
:1003100088169104A104B10408F44DCF8FB7F89466
:1003200080906F0090907000A0907100B09072006B
:100330008FBF8092620090926300A0926400B0929E
:10034000650080917A00813009F450C0823019F044
:10035000939894982CCF839BFBCF939A949A27CF12
:10036000859913C080917A00811192C0F0937A0030
:1003700010927C001092790089B78F7B89BF8FB56E
:100380008F778FBDC398F0926A008699F2CE8091E4
:100390007A00811187C0E092790089B78F7B89BF8D
:1003A0008FB58F778FBDC398F0926A00E2CE90919F
:1003B0007A009111EDCE823009F0EACE8EB5887FB9
:1003C0008EBD8EB581608EBD8FB58F778FBD1DBC04
:1003D0001CBCD5BCC4BC1BBD0ABD8FB580688FBD1D
:1003E00089B7806489BF939A949AD2CE80917C0019
:1003F000813009F471C008F461C0823009F0D7CEB1
:10040000939A9498D4CE8EB5887F8EBD80917C00CF
:100410009EB5823009F486C0813009F4ACC0946086
:100420009EBDB5BDA4BD90917B00923009F459C02A
:10043000913009F499C0823009F4A6C0813009F4E2
:10044000C0C084B595B54C01A12CB12C2401350157
:10045000440C551C661C771C440C551C661C771CF0
:10046000840C951CA61CB71C9EE0B694A794979488
:1004700087949A95D1F79BBC8ABCF09379008FB58D
:1004800080688FBD89B7806489BF80917A0018CF5A
:10049000813009F06FCF90917C0091115CC0809306
:1004A0007C0068CF813009F078CF90917B0091116A
:1004B00098C080937B00109279006FCF809161008B
:1004C0008A30A8F5939A809161008F5F80936100D4
:1004D0001092600094986BCE83993ACF939A949837
:1004E00066CE84B595B52C01612C712C5301420167
:1004F000880C991CAA1CBB1C880C991CAA1CBB1C30
:10050000880C991CAA1CBB1C84189508A608B7085F
:10051000E3E0B694A79497948794EA95D1F79BBCAF
:100520008ABCABCF91609EBD35BC24BC7CCF809192
:1005300060008A3008F00DCF9398809160008F5F43
:100540008093600080916000893008F402CF10929F
:10055000610094982CCE913009F440C0923009F09B
:1005600009CF10927A0006CF84B595B596958795F8
:100570009BBD8ABD82CF92609EBD90E1A92E97E27D
:10058000B92EB5BCA4BC4FCF84B595B54C01A12CF8
:10059000B12C24013501440C551C661C771C440CFD
:1005A000551C661C771C840C951CA61CB71C94E07B
:1005B000B694A794979487949A95D1F79BBC8ABCDC
:1005C0005CCF84B595B596958795929582958F70F9
:1005D00089279F7089279BBD8ABD4FCFE0927C0001
:1005E000C9CE913019F010927B0065CFE0927B006C
:0605F00062CFF894FFCF7A
:00000001FF
