S021000054696E79323331332073696D706C652067656E657261746F722E7372656305
S113000012C02AC029C028C027C026C025C024C0C9
S113001023C022C021C020C01FC04BC01DC01CC0B3
S11300201BC01AC019C011241FBECFEDCDBF10E0F4
S1130030A0E6B0E0E2E9F5E002C005900D92A23638
S1130040B107D9F720E0A2E6B0E001C01D92AD38B7
S1130050B207E1F772D29BC2D3CFFC0180819181B8
S1130060892B19F5849890E0869919C09F5FAFE0B9
S1130070B7E21197F1F700C000009630A9F7849A0F
S1130080BAE6BA95F1F700C084982FE78AE196E0C2
S1130090215080409040E1F700C0000002C095303C
S11300A071F31182108282E008951182108283E03C
S11300B008951F920F920FB60F9211244F935F93DE
S11300C06F937F938F939F93AF93BF93809182009D
S11300D0882309F464C040917200509173006091C8
S11300E074007091750080917A0090917B00A091CA
S11300F07C00B0917D00481759076A077B07A0F47C
S11301008091720090917300A0917400B091750079
S11301100196A11DB11D8093720090937300A0936A
S11301207400B093750001C0849840916E005091A2
S11301306F006091700070917100809176009091D1
S11301407700A0917800B0917900481759076A07A1
S11301507B07A0F480916E0090916F00A0917000D5
S1130160B09171000196A11DB11D80936E00909312
S11301706F00A0937000B093710011C0849A109224
S11301806E0010926F001092700010927100109225
S11301907200109273001092740010927500809196
S11301A07E0090917F00A0918000B0918100019623
S11301B0A11DB11D80937E0090937F00A0938000C9
S11301C0B093810080917E0090917F00A091800087
S11301D0B09181008897A105B105D8F08091830082
S11301E090918400A0918500B09186000196A11D94
S11301F0B11D8093830090938400A0938500B093F5
S1130200860010927E0010927F001092800010925F
S11302108100BF91AF919F918F917F916F915F9179
S11302204F910F900FBE0F901F9018952FB7F89411
S11302306091830070918400809185009091860084
S11302402FBF08950F931F93CF93DF93EC01888101
S113025099818F37910551F08238910541F1892BAD
S113026009F0D1C08FE790E099838883DFDF0091A4
S11302706A0010916B0020916C0030916D00DC01DC
S1130280CB01801B910BA20BB30B0A97A105B105FF
S113029010F480E0BBC08091820081110FC01092E5
S11302A088001092870082E890E09983888387E829
S11302B090E0D3DE823068F3929A939A8091820020
S11302C08130C1F580916000813029F485E090E0AF
S11302D0A0E0B0E008C080916000823089F48CE036
S11302E09BE7A0E0B0E080937A0090937B00A0931A
S11302F07C00B0937D0084E294EFA0E0B0E010C0F5
S113030085E090E0A0E0B0E080937A0090937B00D9
S1130310A0937C00B0937D0081E792E0A0E0B0E080
S11303208093760090937700A0937800B09379003F
S1130330929A939880918200823061F58091600056
S1130340813029F485E090E0A0E0B0E00DC0809118
S11303506000823029F48BE391E0A0E0B0E004C0B7
S113036082E392E0A0E0B0E080937A0090937B0077
S1130370A0937C00B0937D0081E792E0A0E0B0E020
S11303808093760090937700A0937800B0937900DF
S11303909298939A80918200833061F580916000F5
S11303A0813029F485E090E0A0E0B0E00DC08091B8
S11303B06000823029F48FE190E0A0E0B0E004C056
S11303C088E390E0A0E0B0E080937A0090937B0013
S11303D0A0937C00B0937D008EE390E0A0E0B0E0B9
S11303E08093760090937700A0937800B09379007F
S11303F0929893981BDF60936A0070936B008093CC
S11304006C0090936D001982188283E0DF91CF9184
S11304101F910F9108950F931F93CF93DF93EC01D6
S113042088819981009721F0823C910529F07BC055
S113043082EC90E099838883F9DE00916600109144
S11304406700209168003091690060177107820786
S1130450930709F46CC0EADE60936600709367004A
S11304608093680090936900209164003091650046
S113047085990BC0293E83E0380738F42F5F3F4F3E
S1130480309365002093640021C025383340D0F0B8
S113049080918200811102C081E005C080918200B8
S11304A0813021F482E0809382000CC0809182002C
S11304B0823011F483E0F7CF80918200833011F40D
S11304C010928200109265001092640020916200E4
S11304D03091630086990BC0293E83E0380738F4D5
S11304E02F5F3F4F30936300209362001CC0253878
S11304F03340A8F080916000813011F482E005C09F
S113050080916000823021F483E08093600007C012
S113051080918200833019F481E0809382001092EC
S11305206300109262001982188283E001C080E0A7
S1130530DF91CF911F910F9108958EEF81BB8FEFC3
S113054087BB12BA18BA82E080BF81E080BF12BEB6
S113055084E686BF89B7816089BF10928C001092AF
S11305608B0010928A0010928900A8959FE088E180
S11305700FB6F894A89581BD0FBE91BD78948BE811
S113058090E049DF89E890E05DDEA895F8CFF89423
S1050590FFCF97
S1050592010062
S9030000FC
