:1000000012C01FC01EC01DC04EC01BC01AC019C0E8
:1000100018C017C016C015C014C020C012C011C02F
:1000200010C00FC00EC011241FBECFEDCDBF20E009
:10003000A0E6B0E001C01D92AD37B207E1F7B8D13C
:1000400010C2DECF2FB7F89460916D0070916E00F2
:1000500080916F00909170002FBF08951F920F92B2
:100060000FB60F9211248F939F93AF93BF938091FC
:100070006D0090916E00A0916F00B091700001969C
:10008000A11DB11D80936D0090936E00A0936F0031
:10009000B0937000BF91AF919F918F910F900FBE61
:1000A0000F901F9018951F920F920FB60F92112468
:1000B0000F900FBE0F901F901895FC0180819181C9
:1000C000892BA9F4939886990EC0929A939A8DE001
:1000D0008A95F1F7000093988FE19EE40197F1F77C
:1000E00000C0000092981182108282E0089511826F
:1000F000108283E008950F931F93CF93DF93EC0159
:1001000088819981009721F0843D910529F04CC0A8
:1001100084ED90E09983888395DF009169001091C8
:100120006A0020916B0030916C00DC01CB01801BD8
:10013000910BA20BB30B80359105A105B105C0F160
:1001400081DF6093690070936A0080936B009093E5
:100150006C00859914C080917A00811106C081E0FD
:1001600080937A0010927C0005C0813019F582E0FE
:1001700080937C001092790089B78F7B89BF869924
:1001800013C080917B00811102C081E003C08130E7
:1001900021F482E080937B0002C010927B001092D9
:1001A000790089B78F7B89BF1982188283E005C0E7
:1001B00080E003C010927A00DDCFDF91CF911F91D4
:1001C0000F9108950F931F93CF93DF93EC018881D4
:1001D0009981853021E0920761F0813321E0920717
:1001E00009F474C0892B09F082C085E091E09983FD
:1001F000888328DF009165001091660020916700D8
:1002000030916800DC01CB01801B910BA20BB30B7A
:100210000A97A105B10510F480E06CC080917A00C6
:10022000813009F042C080917900811140C08091F5
:100230007C00823031F48EB581608EBD82E090E02A
:1002400007C0813041F48EB582608EBD81E090E0C0
:1002500095BD84BD05C08EB588608EBD15BC14BC2F
:1002600080917B00823059F484B595B567E070E0E9
:10027000E7D043E0969587954A95E1F70DC0813028
:1002800029F484B595B59695879506C084B595B53E
:10029000892F992782958F709BBD8ABD81E08093BD
:1002A000790089B7806489BF19C08230B9F089B7F5
:1002B0008F7B89BF10927A001092790010927200A1
:1002C0001092710081E391E09983888381E790E047
:1002D000F4DE823008F4A0CF92989498B3DE609355
:1002E00065007093660080936700909368001982A0
:1002F000188283E0DF91CF911F910F9108950F93A2
:100300001F93CF93DF93EC0188819981009721F0AF
:100310008E33914029F042C08EE391E09983888327
:1003200091DE009161001091620020916300309194
:100330006400DC01CB01801B910BA20BB30B843654
:100340009105A105B10570F180917A008130E9F441
:1003500080917C008130A9F018F08230E9F01EC055
:10036000829908C0809160008B3020F092981092A2
:10037000600010C0929A809160008F5F809360004F
:1003800009C0829B06C0929A05C0823039F48299D6
:1003900003C09298949802C0929A949A19821882F3
:1003A00083E001C080E0DF91CF911F910F9108950C
:1003B0001092790010927A0010927B0010927C00CB
:1003C0008EE181BB8FEF87BB80E682BB18BA82E0EB
:1003D00080BF83E083BF12BE8DE786BF82E48FBDFE
:1003E0008CE18EBD1DBC1CBC15BC14BC1BBC1ABC56
:1003F00089B7816489BF10927800109277001092BB
:100400007600109275001092740010927300109292
:10041000720010927100A8959FE088E10FB6F894E1
:10042000A89581BD0FBE91BD789487E790E063DE0B
:1004300085E790E0C7DE83E790E061DFA895F5CF20
:100440000024552704C0080E591F880F991F0097D4
:1004500029F076956795B8F37105B9F7802D952F3A
:060460000895F894FFCF9F
:00000001FF
