:1000000012C02AC029C028C027C026C057C024C09B
:1000100023C022C021C020C01FC01EC01DC01CC0E4
:100020001BC01AC019C011241FBECFEDCDBF10E0F8
:10003000A0E6B0E0E2E2F7E002C005900D92A23641
:10004000B107D9F720E0A2E6B0E001C01D92AF38B9
:10005000B207E1F73FD363C3D3CFFC018081918125
:10006000892B41F589B78D7F89BF849820916E00D7
:1000700030916F002630310598F4869B04C02530FE
:100080003105A0F00DC02F5F3F4F30936F002093DC
:100090006E008FE097E20197F1F700C00000E6CF15
:1000A000849A9AE69A95F1F700C08498118210829A
:1000B00082E008951182108283E008951F920F92CA
:1000C0000FB60F9211244F935F936F937F938F938B
:1000D0009F93AF93BF9340917400509175006091CE
:1000E00076007091770080917C0090917D00A091C6
:1000F0007E00B0917F00481759076A077B07A0F47C
:100100008091740090917500A0917600B091770075
:100110000196A11DB11D8093740090937500A0936A
:100120007600B093770001C08498409170005091A0
:1001300071006091720070917300809178009091CD
:100140007900A0917A00B0917B00481759076A079F
:100150007B07A0F48091700090917100A0917200D3
:10016000B09173000196A11DB11D80937000909312
:100170007100A0937200B093730011C0849A109222
:100180007000109271001092720010927300109221
:100190007400109275001092760010927700809192
:1001A000800090918100A0918200B091830001961F
:1001B000A11DB11D8093800090938100A0938200C7
:1001C000B09383008091800090918100A091820083
:1001D000B0918300CE97A105B105D9F48091850037
:1001E00090918600A0918700B09188000196A11D92
:1001F000B11D8093850090938600A0938700B093F3
:10020000880010928000109281001092820010925B
:100210008300BF91AF919F918F917F916F915F917B
:100220004F910F900FBE0F901F9018952FB7F89415
:100230006091850070918600809187009091880080
:100240002FBF08950F931F93CF93DF93EC01888105
:1002500099818B37910551F08F37910581F1892B69
:1002600009F05BC18BE790E099838883DFDF009121
:100270006A0010916B0020916C0030916D00DC01E0
:10028000CB01801B910BA20BB30B0A97A105B10503
:1002900010F480E045C180918400882329F080918A
:1002A0008400813089F511C089B78D7F89BF109294
:1002B0008A00109289008FE790E09983888389E80B
:1002C00090E0CBDE823058F7E4CF8091600081303F
:1002D000D9F485E090E0A0E0B0E080937C009093BA
:1002E0007D00A0937E00B0937F0084E294EFA0E0B5
:1002F000B0E08093780090937900A0937A00B09357
:100300007B0089B7826089BF809184008130E1F4ED
:10031000809160008230C1F48CE09BE7A0E0B0E007
:1003200080937C0090937D00A0937E00B0937F002B
:1003300084E294EFA0E0B0E080937800909379009D
:10034000A0937A00B0937B00809184008130E1F427
:10035000809160008330C1F48AEB9BEDA0E0B0E0B7
:1003600080937C0090937D00A0937E00B0937F00EB
:1003700084E294EFA0E0B0E080937800909379005D
:10038000A0937A00B0937B00809184008230E1F4E6
:10039000809160008130C1F485E090E0A0E0B0E0A1
:1003A00080937C0090937D00A0937E00B0937F00AB
:1003B00081E792E0A0E0B0E080937800909379002C
:1003C000A0937A00B0937B00809184008230E1F4A6
:1003D000809160008230C1F48BE391E0A0E0B0E056
:1003E00080937C0090937D00A0937E00B0937F006B
:1003F00081E792E0A0E0B0E08093780090937900EC
:10040000A0937A00B0937B00809184008230E1F465
:10041000809160008330C1F482E392E0A0E0B0E01C
:1004200080937C0090937D00A0937E00B0937F002A
:1004300081E792E0A0E0B0E08093780090937900AB
:10044000A0937A00B0937B00809184008330E1F424
:10045000809160008130C1F485E090E0A0E0B0E0E0
:1004600080937C0090937D00A0937E00B0937F00EA
:100470008EE390E0A0E0B0E0809378009093790064
:10048000A0937A00B0937B00809184008330E1F4E4
:10049000809160008230C1F48FE190E0A0E0B0E094
:1004A00080937C0090937D00A0937E00B0937F00AA
:1004B0008EE390E0A0E0B0E0809378009093790024
:1004C000A0937A00B0937B00809184008330E1F4A4
:1004D000809160008330C1F488E390E0A0E0B0E058
:1004E00080937C0090937D00A0937E00B0937F006A
:1004F0008EE390E0A0E0B0E08093780090937900E4
:10050000A0937A00B0937B0091DE60936A007093B1
:100510006B0080936C0090936D001982188283E0C9
:10052000DF91CF911F910F9108950F931F93CF9358
:10053000DF93EC01888199818D3A910589F040F42F
:10054000892B09F0BFC08DEA90E09983888308C0A9
:10055000883B9105B9F18D3C910509F482C0B2C088
:1005600065DE00916600109167002091680030916F
:100570006900601771078207930711F480E0A5C036
:1005800055DE6093660070936700809368009093D7
:100590006900209164003091650085990BC0293E67
:1005A00083E0380738F42F5F3F4F30936500209386
:1005B00064003EC0253883E03807C8F088EB90E03F
:1005C0009983888333DE0091660010916700209143
:1005D000680030916900DC01CB01801B910BA20BFC
:1005E000B30B883E9340A105B105F0F4C7CF253089
:1005F0003105D0F080918400811102C081E005C0F6
:1006000080918400813021F482E0809384000CC0CA
:1006100080918400823011F483E0F7CF80918400D0
:10062000833011F4109284001092650010926400DF
:10063000209162003091630086990BC0293E83E0CF
:10064000380738F42F5F3F4F3093630020936200E8
:1006500039C0253883E03807C8F08DEC90E09983E5
:100660008883E4DD009166001091670020916800A6
:1006700030916900DC01CB01801B910BA20BB30B05
:10068000883E9340A105B105C8F478CF25303105E7
:10069000A8F080916000813011F482E005C0809163
:1006A0006000823021F483E08093600007C0809175
:1006B0008400833019F481E08093840010926300F9
:1006C000109262001982188283E0DF91CF911F910E
:1006D0000F9108958EEF81BB8FEF87BB12BA18BAC6
:1006E0008DE282BF89B7826489BF10928E0010921A
:1006F0008D0010928C0010928B00A8959FE088E1ED
:100700000FB6F894A89581BD0FBE91BD78948DE881
:1007100090E00BDF8BE890E095DDA895F8CFF8949A
:02072000FFCF09
:020722000100D4
:00000001FF
