:1000000012C01FC01EC01DC042C01BC01AC024C3E6
:1000100018C0F1C216C015C014C014C012C011C05F
:1000200010C00FC00EC011241FBECFEDCDBF20E009
:10003000A0E6B0E001C01D92A538B207E1F739D0C3
:1000400037C3DECF1F920F920FB60F9211248F93FA
:100050009F93AF93BF9380916F0090917000A09198
:100060007100B09172000196A11DB11D80936F00C7
:1000700090937000A0937100B0937200BF91AF9104
:100080009F918F910F900FBE0F901F9018951F9208
:100090000F920FB60F9211248F93809179008230C6
:1000A00011F4109279008F910F900FBE0F901F9056
:1000B00018951092790010927A0010927B0010929D
:1000C0007C008EE181BB8FEF87BB80E682BB18BAD4
:1000D00082E080BF83E083BF12BE8DE786BF82E8E7
:1000E0008FBD8CE18EBD8FB58F778FBD1DBC1CBCC5
:1000F00015BC14BC1BBC1ABC89B7816089BF72D205
:10010000109278001092770010927600109275008D
:100110001092740010927300A8959FE088E10FB6CA
:10012000F894A89581BD0FBE91BD7894E4E1BE2EF0
:10013000F2E0AF2E9924939441EA50E000E61AEEE3
:10014000C4ECD9E0A2E1BAE7E0E1F7E226EE30E064
:100150008BE391E02CC061EAE616F10499F110926C
:10016000780010927700E0907500F0907600E1142E
:10017000F10409F463C066EEE616F10409F462C006
:100180001092760010927500E0907300F090740069
:10019000E114F10409F49CC06BE3E61661E0F60695
:1001A00009F49AC01092740010927300A895E09020
:1001B0007700F0907800E114F10469F6509378002C
:1001C000409377007FB6F894C0906F00D090700095
:1001D000E0907100F09072007FBE40906B005090F4
:1001E0006C0060906D0070906E00C418D508E60831
:1001F000F7086AE0C616D104E104F10408F4B3CFAD
:100200007FB6F894C0906F00D0907000E0907100BD
:10021000F09072007FBEC0926B00D0926C00E092B2
:100220006D00F0926E00F0906A00FF2009F494C017
:10023000F0906A00FA94F0926A0091CF30937600C1
:10024000209375007FB6F894C0906F00D090700036
:10025000E0907100F09072007FBE40906600509078
:1002600067006090680070906900C418D508E608BF
:10027000F7086AE0C616D104E104F10408F484CF5B
:100280007FB6F894C0906F00D0907000E09071003D
:10029000F09072007FBEC0926600D0926700E0923C
:1002A0006800F09269006091790061117CC06091F2
:1002B0007A00613009F4A3C0611162CF69B76F7B26
:1002C00069BF6FB56F776FBDC3989398949858CFF7
:1002D00090937400809373007FB6F894C0906F0081
:1002E000D0907000E0907100F09072007FBE40905E
:1002F0006200509063006090640070906500C418C4
:10030000D508E608F70864E6C616D104E104F1044E
:1003100008F44CCF7FB6F894C0906F00D090700076
:10032000E0907100F09072007FBEC0926200D092A7
:100330006300E0926400F092650060917A006130A1
:1003400009F450C0623019F0939894982BCF839B96
:10035000FBCF939A949A26CF859913C070917A0017
:10036000711191C090927A0010927C0010927900E5
:1003700069B76F7B69BF6FB56F776FBDC398B09278
:100380006A008699ECCE70917A00711186C0A092B5
:10039000790069B76F7B69BF6FB56F776FBDC39821
:1003A000B0926A00DCCEE0907A00E110E9CE6230D3
:1003B00009F0E6CE6EB5687F6EBD6EB561606EBD4C
:1003C0006FB56F776FBD1DBC1CBC15BD04BDDBBD1B
:1003D000CABD6FB560686FBD69B7606469BF939A45
:1003E000949ACECE60917C00613009F470C008F41C
:1003F00060C0623009F0D6CE939A9498D3CE6EB591
:10040000687F6EBD60917C007EB5623009F484C067
:10041000613009F4ADC074607EBDB5BDA4BD7091FE
:100420007B00723009F458C0713009F49AC0623010
:1004300009F4A3C0613009F4BCC0C4B4D5B4E12C44
:10044000F12C26013701440C551C661C771C440C0A
:10045000551C661C771CC40CD51CE61CF71C7EE0E2
:10046000F694E794D794C7947A95D1F7DBBCCABCCD
:10047000909279006FB560686FBD69B7606469BFBD
:1004800060917A0019CF713009F070CF60917C00D3
:1004900061115FC070937C0069CF713009F079CF32
:1004A00060917B00611196C070937B00109279007F
:1004B00070CF609161006A30C0F5939AF09061004E
:1004C000F394F09261001092600094986BCE83993F
:1004D0003BCF939A949866CE44B455B4612C712C5A
:1004E00073016201CC0CDD1CEE1CFF1CCC0CDD1C6E
:1004F000EE1CFF1CCC0CDD1CEE1CFF1CC418D50828
:10050000E608F70863E0F694E794D794C7946A95F1
:10051000D1F7DBBCCABCACCF71607EBD70E4E72E06
:100520007FE1F72EF5BCE4BC7ACF609160006A30C1
:1005300008F00BCF9398F0906000F394F092600075
:1005400060916000693008F400CF109261009498C7
:1005500029CE6130E1F1623009F008CF10927A00C3
:1005600005CFE4B4F5B4F694E794FBBCEABC80CFC5
:1005700072607EBDF5BDE4BD52CFC4B4D5B4E12CEC
:10058000F12C26013701440C551C661C771C440CC9
:10059000551C661C771CC40CD51CE61CF71C64E0BB
:1005A000F694E794D794C7946A95D1F7DBBCCABC9C
:1005B0005FCFE4B4F5B4F694E794F294E2946FE07C
:1005C000E622EF24F622EF24FBBCEABC51CFA09236
:1005D0007C00CCCE613019F010927B0067CFA092E6
:1005E0007B0064CF12B883E389B9599888ED8AB942
:1005F00086E483B908951F920F920FB60F921124CB
:100600008F93EF93FF9380918100882399F0E0917D
:100610008200F0E0ED57FF4F80818CB9809181001E
:10062000815080938100809182008F5F823051F0F1
:1006300080938200FF91EF918F910F900FBE0F90EA
:100640001F90189510928200FF91EF918F910F905B
:100650000FBE0F901F9018951F920F920FB60F921A
:1006600011248F939F93EF93FF9380917D008230AD
:1006700048F0FF91EF919F918F910F900FBE0F90D7
:100680001F90189580917E00E82FF0E09CB1E15812
:10069000FF4F90838F5F823041F080937E00809186
:1006A0007D008F5F80937D00E4CF10927E00F7CFB6
:0406B000F894FFCFEC
:00000001FF
