S021000054696E79323331332073696D706C652067656E657261746F722E7372656305
S113000012C01FC01EC01DC04EC01BC01AC019C0E4
S113001018C017C016C015C014C020C012C011C02B
S113002010C00FC00EC011241FBECFEDCDBF20E005
S1130030A0E6B0E001C01D92AE37B207E1F7E2D10D
S113004036C2DECF2FB7F89460916E0070916F00C6
S113005080917000909171002FBF08951F920F92AC
S11300600FB60F9211248F939F93AF93BF938091F8
S11300706E0090916F00A0917000B0917100019694
S1130080A11DB11D80936E0090936F00A09370002A
S1130090B0937100BF91AF919F918F910F900FBE5C
S11300A00F901F9018951F920F920FB60F92112464
S11300B00F900FBE0F901F901895FC0180819181C5
S11300C0892BC1F4C398869911C0939AC39A2DE0E1
S11300D02A95F1F70000C3988FEF94E32CE0815048
S11300E090402040E1F700C00000939811821082F4
S11300F082E008951182108283E008950F931F9384
S1130100CF93DF93EC0188819981009721F0853F9B
S1130110910529F05BC085EF90E09983888392DF95
S113012000916A0010916B0020916C0030916D0079
S1130130DC01CB01801B910BA20BB30B883791051B
S1130140A105B10508F446C07DDF60936A00709391
S11301506B0080936C0090936D00859922C0909100
S11301607B00911106C081E080937B0010927D009A
S113017013C0913089F480917D00811103C0909364
S11301807D000AC0813021F482E080937D0004C0A8
S1130190823011F410927B0010927A0089B78F7B21
S11301A089BF869913C080917C00811102C081E0CF
S11301B003C0813021F482E080937C0002C010925D
S11301C07C0010927A0089B78F7B89BF19821882CC
S11301D083E001C080E0DF91CF911F910F910895DA
S11301E00F931F93CF93DF93EC018881998186321B
S11301F021E0920761F0863521E0920709F482C07C
S1130200892B09F087C086E291E0998388831ADFFD
S11302100091660010916700209168003091690098
S1130220DC01CB01801B910BA20BB30B0A97A10538
S1130230B10510F480E071C005DF6093660070932F
S11302406700809368009093690080917B008130FF
S113025009F047C080917A00811145C082E88FBDC2
S11302608EB587708EBD80917D00823031F48EB55D
S113027081608EBD82E090E007C0813041F48EB58C
S113028082608EBD81E090E095BD84BD05C08EB5D1
S113029088608EBD15BC14BC80917C00823059F4FA
S11302A084B595B567E070E0F1D043E09695879505
S11302B04A95E1F70DC0813029F484B595B596953A
S11302C0879506C084B595B5892F992782958F7037
S11302D09BBD8ABD81E080937A0089B7806489BF21
S11302E019C08230B9F089B78F7B89BF82E08FBD96
S11302F010927A00109273001092720086E591E0D9
S11303009983888382E790E0D8DE823008F492CF24
S1130310939894981982188283E0DF91CF911F916A
S11303200F9108950F931F93CF93DF93EC0188816E
S11303309981009721F08236914029F059C082E6D4
S113034091E0998388837EDE0091620010916300BE
S11303502091640030916500DC01CB01801B910B7E
S1130360A20BB30B84369105A105B10508F444C072
S113037069DE6093620070936300809364009093DD
S1130380650080917B00813051F580917D00813042
S113039011F118F0823009F12BC0809161008A308C
S11303A048F4939A809161008F5F8093610010926A
S11303B060001DC0809160008A30C8F493988091D9
S11303C060008F5F8093600080916000893078F0D6
S11303D0109261000CC0839909C0939A08C08230BE
S11303E029F4839B03C0939A949A02C09398949897
S11303F01982188283E001C080E0DF91CF911F91C0
S11304000F91089510927A0010927B0010927C0054
S113041010927D008EE181BB8FEF87BB80E682BBAB
S113042018BA82E080BF83E083BF12BE8DE786BF27
S113043082E88FBD8CE18EBD1DBC1CBC89B7816078
S113044089BF109279001092780010927700109270
S1130450760010927500109274001092730010923E
S11304607200A8959FE088E10FB6F894A89581BD25
S11304700FBE91BD789488E790E040DE86E790E077
S1130480AFDE84E790E04EDFA895F5CF0024552732
S113049004C0080E591F880F991F009729F07695FC
S11304A06795B8F37105B9F7802D952F0895F894E1
S10504B0FFCF78
S9030000FC
