S021000054696E79323331332073696D706C652067656E657261746F722E7372656305
S113000012C02AC029C028C027C026C025C024C0C9
S113001023C022C021C020C01FC03BC01DC01CC0C3
S11300201BC01AC019C011241FBECFEDCDBF10E0F4
S1130030A0E6B0E0EAE0F5E002C005900D92A23639
S1130040B107D9F720E0A2E6B0E001C01D92A938BB
S1130050B207E1F72DD257C2D3CFFC018081918141
S1130060892B99F4949886990CC0949A8DE08A957A
S1130070F1F7000094988FE19EE40197F1F700C036
S113008000001182108282E008951182108283E0C0
S113009008951F920F920FB60F9211244F935F93FE
S11300A06F937F938F939F93AF93BF9380917E00C1
S11300B0882309F464C040916E0050916F006091F0
S11300C07000709171008091760090917700A091FA
S11300D07800B0917900481759076A077B07A0F4A4
S11300E080916E0090916F00A0917000B0917100AA
S11300F00196A11DB11D80936E0090936F00A09393
S11301007000B093710001C0949840916A005091BE
S11301106B0060916C0070916D0080917200909101
S11301207300A0917400B0917500481759076A07CD
S11301307B07A0F480916A0090916B00A0916C0001
S1130140B0916D000196A11DB11D80936A0090933A
S11301506B00A0936C00B0936D0011C0949A109240
S11301606A0010926B0010926C0010926D00109255
S11301706E0010926F0010927000109271008091C6
S11301807A0090917B00A0917C00B0917D00019653
S1130190A11DB11D80937A0090937B00A0937C00F5
S11301A0B0937D0080917A0090917B00A0917C00B7
S11301B0B0917D008897A105B105D8F080917F00AA
S11301C090918000A0918100B09182000196A11DC0
S11301D0B11D80937F0090938000A0938100B09321
S11301E0820010927A0010927B0010927C00109290
S11301F07D00BF91AF919F918F917F916F915F919E
S11302004F910F900FBE0F901F9018952FB7F89431
S113021060917F00709180008091810090918200B4
S11302202FBF08950F931F93CF93DF93EC01888121
S113023099818C37910551F08038910541F1892BD2
S113024009F0C5C08CE790E099838883DFDF0091D3
S11302506600109167002091680030916900DC010C
S1130260CB01801B910BA20BB30B0A97A105B1051F
S113027010F480E0AFC080917E0081110FC0109215
S113028084001092830080E890E09983888383E857
S113029090E0E3DE823068F3929A939A80917E0034
S11302A0813061F580916000813029F485E090E02F
S11302B0A0E0B0E00DC080916000823029F48CE0B1
S11302C09BE7A0E0B0E004C08AEB9BEDA0E0B0E0C7
S11302D08093760090937700A0937800B093790090
S11302E084E294EFA0E0B0E08093720090937300F6
S11302F0A0937400B0937500929A939880917E00B5
S1130300823061F580916000813029F485E090E0CD
S1130310A0E0B0E00DC080916000823029F48BE34E
S113032091E0A0E0B0E004C082E392E0A0E0B0E09D
S11303308093760090937700A0937800B09379002F
S113034081E792E0A0E0B0E08093720090937300A4
S1130350A0937400B09375009298939A80917E0054
S1130360833061F580916000813029F485E090E06C
S1130370A0E0B0E00DC080916000823029F48FE1EC
S113038090E0A0E0B0E004C088E390E0A0E0B0E03A
S11303908093760090937700A0937800B0937900CF
S11303A08EE390E0A0E0B0E080937200909373003D
S11303B0A0937400B09375009298939827DF60938C
S11303C066007093670080936800909369001982B7
S11303D0188283E0DF91CF911F910F9108950F93BD
S11303E01F93CF93DF93EC0188819981009721F0CB
S11303F0803C910529F052C080EC90E09983888379
S113040005DF009162001091630020916400309137
S11304106500DC01CB01801B910BA20BB30B803573
S11304209105A105B105F0F1F1DE609362007093CE
S11304306300809364009093650085991AC080914D
S11304407E00811102C081E005C080917E00813070
S113045021F482E080937E000CC080917E00823083
S113046011F483E0F7CF80917E00833011F4109271
S11304707E00869913C080916000813011F482E07F
S11304800BC080916000823011F483E005C080913C
S11304906000833019F481E080936000198218822F
S11304A083E001C080E0DF91CF911F910F91089507
S11304B08EE181BB8FEF87BB80E682BB18BA82E0F6
S11304C080BF81E083BF12BE84E686BF89B78160A6
S11304D089BF1092880010928700109286001092B3
S11304E08500A8959FE088E10FB6F894A89581BD92
S11304F00FBE91BD789487E890E071DF85E890E0C5
S10D050091DEA895F8CFF894FFCF20
S105050A0100EA
S9030000FC
