S021000054696E79323331332073696D706C652067656E657261746F722E7372656305
S113000012C01FC01EC01DC04EC01BC01AC019C0E4
S113001018C017C016C015C014C020C012C011C02B
S113002010C00FC00EC011241FBECFEDCDBF20E005
S1130030A0E6B0E001C01D92AD37B207E1F7C4D12C
S113004018C2DECF2FB7F89460916D0070916E00E6
S113005080916F00909170002FBF08951F920F92AE
S11300600FB60F9211248F939F93AF93BF938091F8
S11300706D0090916E00A0916F00B0917000019698
S1130080A11DB11D80936D0090936E00A0936F002D
S1130090B0937000BF91AF919F918F910F900FBE5D
S11300A00F901F9018951F920F920FB60F92112464
S11300B00F900FBE0F901F901895FC0180819181C5
S11300C0892BC1F49398869911C0929A939A2DE042
S11300D02A95F1F7000093988FEF94E32CE0815078
S11300E090402040E1F700C00000929811821082F5
S11300F082E008951182108283E008950F931F9384
S1130100CF93DF93EC0188819981009721F0833F9D
S1130110910529F04CC083EF90E09983888392DFA6
S11301200091690010916A0020916B0030916C007D
S1130130DC01CB01801B910BA20BB30B8035910525
S1130140A105B105C0F17EDF6093690070936A0078
S113015080936B0090936C00859914C080917A0011
S1130160811106C081E080937A0010927C0005C062
S1130170813019F582E080937C001092790089B770
S11301808F7B89BF869913C080917B00811102C047
S113019081E003C0813021F482E080937B0002C0BF
S11301A010927B001092790089B78F7B89BF1982E6
S11301B0188283E005C080E003C010927A00DDCF8E
S11301C0DF91CF911F910F9108950F931F93CF93B8
S11301D0DF93EC0188819981843221E0920761F0F8
S11301E0813521E0920709F47DC0892B09F082C092
S11301F084E291E09983888325DF00916500109162
S113020066002091670030916800DC01CB01801BFF
S1130210910BA20BB30B0A97A105B10510F480E072
S11302206CC010DF60936500709366008093670074
S11302309093680080917A00813009F042C08091E7
S11302407900811140C080917C00823031F48EB5F8
S113025081608EBD82E090E007C0813041F48EB5AC
S113026082608EBD81E090E095BD84BD05C08EB5F1
S113027088608EBD15BC14BC80917B00823059F41B
S113028084B595B567E070E0E3D043E09695879533
S11302904A95E1F70DC0813029F484B595B596955A
S11302A0879506C084B595B5892F992782958F7057
S11302B09BBD8ABD81E08093790089B7806489BF42
S11302C019C08230B9F089B78F7B89BF10927A0048
S11302D010927900109272001092710081E591E001
S11302E09983888381E790E0E8DE823008F497CF31
S11302F0929894981982188283E0DF91CF911F918C
S11303000F9108950F931F93CF93DF93EC0188818E
S11303109981009721F08D35914029F04BC08DE5EE
S113032091E0998388838EDE0091610010916200D0
S11303302091630030916400DC01CB01801B910BA0
S1130340A20BB30B84369105A105B105B8F17ADE91
S113035060936100709362008093630090936400E3
S113036080917A008130E9F480917C008130A9F099
S113037018F08230D1F01EC0829908C080916000CC
S11303808B3020F092981092600013C0929A809162
S113039060008F5F809360000CC0829B09C0929ABA
S11303A008C0823029F4829B03C0929A949A02C0B6
S11303B0929894981982188283E001C080E0DF91BA
S11303C0CF911F910F9108951092790010927A00A5
S11303D010927B0010927C008EE181BB8FEF87BB73
S11303E080E682BB18BA82E080BF83E083BF12BE7E
S11303F08DE786BF82E48FBD8CE18EBD1DBC1CBC25
S113040089B7816089BF10927800109277001092AA
S1130410760010927500109274001092730010927E
S1130420720010927100A8959FE088E10FB6F894CD
S1130430A89581BD0FBE91BD789487E790E05EDEFC
S113044085E790E0C2DE83E790E05CDFA895F5CF16
S11304500024552704C0080E591F880F991F0097C0
S113046029F076956795B8F37105B9F7802D952F26
S10904700895F894FFCF8B
S9030000FC
