:1000000012C01FC01EC01DC042C01BC01AC019C0F4
:1000100018C017C016C015C014C014C012C011C03B
:1000200010C00FC00EC011241FBECFEDCDBF20E009
:10003000A0E6B0E001C01D92AE37B207E1F731D0C3
:10004000A6C2DECF1F920F920FB60F9211248F938C
:100050009F93AF93BF9380916E0090916F00A0919A
:100060007000B09171000196A11DB11D80936E00CA
:1000700090936F00A0937000B0937100BF91AF9107
:100080009F918F910F900FBE0F901F9018951F9208
:100090000F920FB60F9211240F900FBE0F901F906A
:1000A000189510927A0010927B0010927C001092AA
:1000B0007D008EE181BB8FEF87BB80E682BB18BAE3
:1000C00082E080BF83E083BF12BE8DE786BF82E8F7
:1000D0008FBD8CE18EBD1DBC1CBC89B7816089BF02
:1000E00010927900109278001092770010927600AA
:1000F00010927500109274001092730010927200AA
:10010000A8959FE088E10FB6F894A89581BD0FBE31
:1001100091BD789422E0A22EBB24B39448EF50E026
:10012000E3E6F1E002E11AE7C0E1D7E269E271E05B
:100130002FE631E02CC0883F910599F110927900AB
:100140001092780080917600909177008932A1E03A
:100150009A0709F4BCC08336B1E09B0709F41BC1C0
:10016000892B09F4B0C0109277001092760080912C
:10017000740090917500009709F461C08F3691402A
:1001800009F461C01092750010927400A8958091D6
:10019000780090917900009771F650937900409320
:1001A00078008FB7F894C0906E00D0906F00E09008
:1001B0007000F09071008FBF40906A0050906B000B
:1001C00060906C0070906D00C418D508E608F708C0
:1001D00088E7C816D104E104F10408F4B3CF8FB75F
:1001E000F894C0906E00D0906F00E0907000F09096
:1001F00071008FBFC0926A00D0926B00E0926C00D9
:10020000F0926D0085990DC080917B008111D7C05F
:10021000B0927B0010927D0010927A0089B78F7B9C
:1002200089BF86998BCF80917C008111D2C0B0921A
:100230007C0010927A0089B78F7B89BF7FCF309383
:100240007500209374008FB7F894C0906E00D09022
:100250006F00E0907000F09071008FBF40906200DE
:10026000509063006090640070906500C418D508D9
:10027000E608F70884E6C816D104E104F10408F49E
:1002800085CF8FB7F894C0906E00D0906F00E0904B
:100290007000F09071008FBFC0926200D092630036
:1002A000E0926400F092650080917B00813009F457
:1002B00079C0823019F09398949864CF839BFBCFD8
:1002C000939A949A5FCF70937700609376008FB77C
:1002D000F894C0906E00D0906F00E0907000F090A5
:1002E00071008FBF4090660050906700609068007A
:1002F00070906900C418D508E608F7088AE0C816A7
:10030000D104E104F10408F432CF8FB7F894C0901F
:100310006E00D0906F00E0907000F09071008FBF81
:10032000C0926600D0926700E0926800F092690087
:1003300080917B00813009F452C0823009F413CFE0
:1003400089B78F7B89BF8FB58F778FBDB0927A00C9
:100350001092730010927200F0937700E093760091
:10036000C398869911C0939AC39ABDE0BA95F1F7E4
:100370000000C3988FEF94E3ACE081509040A04020
:10038000E1F700C000009398109273001092720081
:1003900093989498E8CE8091720090917300892B85
:1003A00099F7DECF80917D00813009F46CC008F4AC
:1003B0005CC0823009F0E6CE939A9498E3CE813007
:1003C00009F02ACF90917D00911165C080937D0046
:1003D00023CF813009F45CC010927C002ACF809139
:1003E0007A008111ADCF8EB5887F8EBD80917D0062
:1003F0009EB5823009F48CC0813009F490C09460BD
:100400009EBD15BD04BD90917C00923009F460C082
:10041000913009F4A5C0823009F486C0813009F416
:10042000A6C0C4B4D5B4E12CF12C26013701440C8C
:10043000551C661C771C440C551C661C771CC40C90
:10044000D51CE61CF71C9EE0F694E794D794C7945D
:100450009A95D1F7DBBCCABCB0927A008FB58068A0
:100460008FBD89B7806489BF7ECE809161008A305C
:10047000D8F4939A809161008F5F8093610010920D
:10048000600094987FCE839916CF939A94987ACEF1
:10049000A0927C00CECE913009F476C0923009F063
:1004A000BBCE10927B00B8CE809160008A3008F0FD
:1004B00003CF9398809160008F5F8093600080915C
:1004C0006000893008F4F8CE1092610094985ACEFA
:1004D00044B455B4612C712C73016201CC0CDD1C49
:1004E000EE1CFF1CCC0CDD1CEE1CFF1CCC0CDD1C20
:1004F000EE1CFF1CC418D508E608F70893E0F69434
:10050000E794D794C7949A95D1F7DBBCCABCA4CF23
:1005100091609EBDA0E4BFE1B5BDA4BD74CF926063
:100520009EBDD5BDC4BD6FCFC4B4D5B4E12CF12CF4
:1005300026013701440C551C661C771C440C551CC5
:10054000661C771CC40CD51CE61CF71C84E0F694D2
:10055000E794D794C7948A95D1F7DBBCCABC7CCF0B
:1005600084B595B5969587959BBD8ABD75CF84B5A5
:1005700095B596958795929582958F7089279F70EE
:1005800089279BBD8ABD68CFA0927D0045CEF89497
:02059000FFCF9B
:00000001FF
