:1000000012C01FC01EC01DC050C01BC01AC019C0E6
:1000100018C017C016C015C014C022C012C011C02D
:1000200010C00FC00EC011241FBECFEDCDBF10E019
:10003000A0E6B0E001C01D92AD37B107E1F762D292
:10004000B2C2DECF8FB7F89420916F00309170006C
:1000500040917100509172008FBFB901CA0108959B
:100060001F920F920FB60F9211248F939F93AF930D
:10007000BF9380916F0090917000A0917100B0913A
:1000800072000196A11DB11D80936F0090937000C6
:10009000A0937100B0937200BF91AF919F918F9127
:1000A0000F900FBE0F901F9018951F920F920FB6D2
:1000B0000F9211248F9380917300823011F410926B
:1000C00073008F910F900FBE0F901F901895FC0139
:1000D00080819181009729F08A3F910509F08DC0B8
:1000E00004C08AEF90E0918380838FB7F8942091C9
:1000F0006F003091700040917100509172008FBF7D
:1001000080916B0090916C00A0916D00B0916E0099
:10011000281B390B4A0B5B0B2A3031054105510571
:1001200010F480E008958FB7F89420916F0030911B
:10013000700040917100509172008FBF20936B004E
:1001400030936C0040936D0050936E0080916A0074
:10015000882321F080916A0081504DC0859929C083
:1001600090917400992331F481E08093740010928F
:10017000760013C0913089F480917600882319F4B9
:10018000909376000AC0813021F482E0809376005B
:1001900004C0823011F4109274001092730089B779
:1001A0008F7B89BF8FB58F778FBDC39884E1809394
:1001B0006A00869922C080917400882321F482E02D
:1001C0008093730010C0813071F490917500992371
:1001D00019F0913021F482E08093750002C01092F2
:1001E00075001092730089B78F7B89BF8FB58F77A9
:1001F0008FBDC39884E180936A001182108283E0EE
:100200000895FC0180819181009729F08F539140DE
:1002100009F0F9C004C08FE391E0918380838FB728
:10022000F89420916F0030917000409171005091CE
:1002300072008FBF8091660090916700A091680066
:10024000B0916900281B390B4A0B5B0B2A30310532
:100250004105510510F480E008952FB7F89480917E
:100260006F0090917000A0917100B09172002FBF4B
:100270008093660090936700A0936800B093690034
:1002800090917300992309F09BC080917400813094
:1002900009F088C08EB5887F8EBD2091760022300F
:1002A00031F48EB581608EBD80E49FE10DC02130B8
:1002B00031F48EB582608EBD80E197E205C08EB5C7
:1002C00084608EBD82E19AE795BD84BD8091750002
:1002D0008230C9F424B535B540E050E0DA01C901F7
:1002E00063E0880F991FAA1FBB1F6A95D1F7821B75
:1002F000930BA40BB50B23E0B695A795979587951F
:100300002A95D1F744C0813029F484B595B59695E6
:1003100087953DC02230C9F424B535B540E050E0A2
:10032000DA01C90162E0880F991FAA1FBB1F6A95F5
:10033000D1F7820F931FA41FB51F24E0B695A79590
:10034000979587952A95D1F722C0213041F484B53D
:1003500095B575E0969587957A95E1F718C024B51F
:1003600035B540E050E0DA01C90162E0880F991F1D
:10037000AA1FBB1F6A95D1F7820F931FA41FB51F39
:100380002EE0B695A795979587952A95D1F79BBDB1
:100390008ABD81E0809373008FB580688FBD89B777
:1003A000806489BF80917400882369F589B78F7B49
:1003B00089BF8FB58F778FBDC3989398949823C0CA
:1003C000809174008230F9F08823E9F49230D9F4F6
:1003D0008EB5887F8EBD8EB581608EBD8FB58F77CF
:1003E0008FBD1DBC1CBC80E69AEE95BD84BD84EC1F
:1003F00099E09BBD8ABD8FB580688FBD89B7806449
:1004000089BF939A949A1182108283E00895FC0127
:1004100080819181009729F08459914009F06EC044
:1004200004C084E991E0918380838FB7F894209190
:100430006F003091700040917100509172008FBF39
:100440008091620090916300A0916400B09165007A
:10045000281B390B4A0B5B0B24363105410551052E
:1004600010F480E008952FB7F89480916F00909178
:100470007000A0917100B09172002FBF8093620054
:1004800090936300A0936400B09365008091740022
:10049000813059F580917600813019F1813018F062
:1004A000823061F520C0809161008A3048F4939ACF
:1004B000809161008F5F80936100109260001DC089
:1004C000809160008A30C8F49398809160008F5FBB
:1004D0008093600080916000893078F01092610014
:1004E0000CC0839909C0939A08C0823029F4839B79
:1004F00003C0939A949A02C09398949811821082A0
:1005000083E00895DF93CF9300D0CDB7DEB781E0CD
:1005100090E09A8389831092730010927400109275
:100520007500109276008EE181BB8FEF87BB80E66D
:1005300082BB18BA82E080BF83E083BF12BE8DE722
:1005400086BF82E88FBD8CE18EBD8FB58F778FBD62
:100550001DBC1CBC15BC14BC1BBC1ABC89B781607B
:1005600089BF109278001092770010927A00109252
:10057000790010927C0010927B00A8952FE088E112
:1005800090E00FB6F894A89581BD0FBE21BD789478
:1005900087E790E09CDD89E790E033DE8BE790E031
:0A05A00036DFA895F5CFF894FFCFE1
:00000001FF
